:020000040800F2
:1000000000000220B92100087507000877070008E2
:10001000790700087B0700087D0700080000000042
:100020000000000000000000000000007F07000842
:10003000810700080000000083070008850700080A
:1000400009220008092200080922000809220008E4
:1000500009220008092200088D070008092200086B
:1000600009220008092200080922000809220008C4
:1000700009220008092200080922000809220008B4
:1000800009220008092200080922000809220008A4
:100090000922000809220008092200080922000894
:1000A0000922000809220008092200080922000884
:1000B0000922000809220008092200080922000874
:1000C0000922000809220008092200080922000864
:1000D0000922000809220008092200080922000854
:1000E0000922000809220008092200080922000844
:1000F0000922000809220008092200080922000834
:100100000922000809220008092200080922000823
:100110000922000809220008092200080922000813
:100120000922000809220008092200080922000803
:1001300009220008092200080922000809220008F3
:1001400009220008092200080922000809220008E3
:10015000092200080922000809220008ED0700080A
:1001600009220008092200080922000809220008C3
:1001700009220008092200080922000800000000E6
:08018000092200080922000811
:1001880053B94AB9002908BF00281CBF4FF0FF31F6
:100198004FF0FF3000F00CB8ADF1080C6DE904CE5B
:1001A80002F030F8DDF804E0DDE9022304B070471E
:1001B800704700BF10F8012B11F8013B012A28BF36
:1001C8009A42F7D0D01A70470348044B834202D0B2
:1001D800034B03B1184770470C0000200C000020A7
:1001E800000000000548064B1B1AD90F01EBA301BC
:1001F800491002D0034B03B1184770470C00002088
:100208000C0000200000000010B5064C237843B90C
:10021800FFF7DAFF044B13B10448AFF30080012362
:10022800237010BD0C0000200000000020250008ED
:1002380008B5054B1BB105490548AFF30080BDE87B
:100248000840FFF7CFBF00BF0000000010000020EB
:100258002025000870B588B0002403940494059400
:10026800069407940094224B1A6B42F040021A63DA
:100278001A6B02F040020092009A01941A6B42F045
:1002880001021A631A6B02F001020192019A0294A8
:100298001A6B42F080021A631B6B03F0800302930F
:1002A800029B144E01224FF4C051304600F0E2FC8C
:1002B8004FF4C0530393012504950594069403A9AC
:1002C800304600F0E1FB03954FF4881304930223B2
:1002D800059303A9084800F0D7FB224621460620CB
:1002E80000F04CFB062000F059FB08B070BD00BFC1
:1002F80000380240001C02400000024008B50268B5
:100308001B4B9A4200D008BD1A4B1B780D2B0BD003
:100318000A2B09D0184A12780E2A19D8501C1649E7
:10032800087016498B5413E0134B1B7813480022AE
:10033800C2541349FFF73EFF80B9124A137883F07D
:1003480001031370104B01221A700B4B00221A7014
:10035800012208490D4801F018FFD4E70C49074865
:10036800FFF728FF0028F0D1074B01221A70ECE7AD
:10037800001401403C000020290000202C0000202F
:10038800382500083D0000202800002040000020FB
:100398004025000872B6FEE700B58FB000230A9327
:1003A8000B930C930D930893099301930293039372
:1003B80004930593069307931D481E4A026053222F
:1003C80042608360F922C2600361836101F0C6F86C
:1003D80020BB4FF480530A930AA9154801F0C9F9C4
:1003E800F0B9134801F0E6F8E0B90023089309933F
:1003F80008A90F4801F0CEFAB0B960230193002292
:1004080002920392059201A9094801F037F968B9E7
:10041800074800F03FF90FB05DF804FBFFF7BAFF9B
:10042800FFF7B8FFFFF7B6FFFFF7B4FFFFF7B2FF1C
:1004380088000020000C004008B50A480A4B0360F9
:100448004FF4E133436000238360C36003610C22EF
:1004580042618361C36101F00CFC00B908BDFFF77C
:1004680099FF00BF400000200014014000B595B07E
:100478003022002108A802F023F8002303930493F4
:100488000593069307930193204A116C41F080511C
:100498001164126C02F080520192019A02931C4B73
:1004A8001A6842F480421A601B6803F4804302937E
:1004B800029B012308934FF48033099302230E9380
:1004C8004FF480020F9206221092A82211921293E2
:1004D8000423139308A800F0EBFB98B90F230393A8
:1004E80002230493002305934FF4A05306934FF47B
:1004F80080530793052103A800F02AFE20B915B000
:100508005DF804FBFFF746FFFFF744FF00380240A1
:100518000070004030B585B000F0C2F9054600F023
:1005280099F9FFF7A3FFFFF795FEFFF735FFFFF7F0
:1005380083FF364C0021204601F0AAF923680022E7
:100548005A63334B6C460FCB07C42380314C64236A
:100558000D226946204601F0BCFB062000F01EFA79
:1005680001222D49204601F010FE39E02B4B009363
:1005780000248DF80440642304226946254801F0CC
:10058800A8FB274B1C702FE000F08AF90546254B85
:100598001B78002B2ED14FF4C051234800F070FB7C
:1005A80028E01A4B1B685C630A2000F07FF90534C9
:1005B800A4B2FA2C27D81B4B1B78002BF1D1FA24B4
:1005C80009E00024F5E7114B1B685C630A2000F082
:1005D8006DF9053CA4B21CB1124B1B78002BF2D16B
:1005E8000F4B1B78002BC1D100F05AF9401BB0F516
:1005F800FA7FC9D20B4B1B78002BE2D1034B1B6847
:1006080000225A63ECE7FA24E5E700BF88000020DF
:1006180048250008400000203C0000204F4B0D0AF0
:10062800280000203D000020001C024082B000216C
:1006380000910B4B5A6C42F480425A645A6C02F493
:1006480080420092009A01911A6C42F080521A641A
:100658001B6C03F080530193019B02B0704700BFED
:10066800003802400268094B9A4200D0704782B0B5
:1006780000230193064B1A6C42F008021A641B6CA3
:1006880003F008030193019B02B07047000C00407F
:100698000038024000B587B000230193029303930A
:1006A8000493059302680E4B9A4202D007B05DF896
:1006B80004FB002300930B4B1A6B42F080021A6371
:1006C8001B6B03F080030093009B4FF4806301933E
:1006D80002230293059301A9034800F0D5F9E5E741
:1006E800000C004000380240001C024010B588B0E1
:1006F8000023039304930593069307930268194B09
:100708009A4201D008B010BD0024019403F5923339
:100718005A6C42F020025A645A6C02F0200201928C
:10072800019A02941A6B42F040021A631B6B03F0A1
:1007380040030293029B4FF48443039302230493E0
:10074800032306930823079303A9074800F09CF99D
:1007580022462146472000F011F9472000F01EF9F3
:10076800D0E700BF0014014000180240FEE7FEE792
:10077800FEE7FEE7FEE770477047704708B500F0F0
:1007880083F808BD10B500F08BF8134B1B68C31A2B
:10079800B3F5967F0ED3104B1860104B1A7882F081
:1007A80001021A701B784BB900224FF4C0510C4853
:1007B80000F060FA012000F06DFA10BD084C01222B
:1007C8004FF40061204600F055FA00224FF48051A2
:1007D800204600F04FFAEDE7D00000203D00002051
:1007E800001C024008B5024801F064FB08BD00BFC8
:1007F80040000020034AD2F8883043F47003C2F85E
:100808008830704700ED00E010B504460E4B1A78AA
:100818004FF47A73B3FBF2F30C4A1068B0FBF3F0B1
:1008280000F0C0F868B90F2C01D901200AE00022B5
:1008380021464FF0FF3000F0A1F8054B1C60002066
:1008480000E0012010BD00BF0400002000000020CF
:100858000800002008B50B4B1A6842F400721A60B1
:100868001A6842F480621A601A6842F480721A6048
:10087800032000F071F80F20FFF7C6FFFFF7D6FE40
:10088800002008BD003C0240034A1168034B1B7856
:100898000B441360704700BFD40000200400002000
:1008A800014B1868704700BFD400002038B50446D3
:1008B800FFF7F6FF0546B4F1FF3F02D0044B1B7863
:1008C8001C44FFF7EDFF401BA042FAD338BD00BF20
:1008D80004000020002807DB00F01F024009012364
:1008E8009340024A42F82030704700BF00E100E020
:1008F800002808DB0901C9B200F1604000F5614039
:1009080080F80013704700F00F000901C9B2014BCD
:100918001954704714ED00E000B500F00700C0F16D
:10092800070CBCF1040F28BF4FF0040C031D062B65
:100938000FD9C31E4FF0FF3E0EFA0CF021EA00015A
:1009480099400EFA03FE22EA0E0241EA02005DF81F
:1009580004FB0023EEE70000074AD36823F4E063B2
:100968001B041B0C000200F4E060034343F0BF6368
:1009780043F40033D360704700ED00E010B504463F
:10098800054BD868C0F30220FFF7C6FF0146204692
:10099800FFF7AEFF10BD00BF00ED00E008B5FFF7A0
:1009A80099FF08BD0138B0F1807F0BD24FF0E023EA
:1009B8005861054AF02182F8231000209861072227
:1009C8001A6170470120704700ED00E070B50446D9
:1009D800866DFFF765FF94F83530DBB2022B06D041
:1009E80080236365002384F83430012070BD0546F8
:1009F8002268136823F0160313602268536923F0F2
:100A080080035361236CE3B12268136823F0080361
:100A180013602268136823F00103136023681B68BE
:100A280013F0010F11D0FFF73BFF431B052BF5D93E
:100A380020236365032084F83500002384F83430CC
:100A4800D4E7A36C002BDFD1E3E7E26D3F239340AB
:100A5800B360012384F83530002084F83400C5E7FA
:100A680090F83530DBB2022B03D080234365012098
:100A78007047052380F835300268136823F00103B6
:100A8800136000207047000000230F2B00F2E9805C
:100A980070B582B065E085684FEA430E032404FA16
:100AA8000EF425EA0405CC6804FA0EF42C4384609D
:100AB800446824EA02044A68C2F300129A402243B6
:100AC80042605CE0DC08083450F8242003F0070595
:100AD800AD004FF00F0E0EFA05FE22EA0E0E0A695F
:100AE800AA4042EA0E0240F824205CE0072200E017
:100AF800002202FA0EF22A4302345A4D45F8242005
:100B0800594A94686FEA0C0224EA0C054E6816F4F8
:100B1800801F01D04CEA0405534CA560E46802EA42
:100B280004054E6816F4001F01D04CEA04054E4C2B
:100B3800E560646802EA04054E6816F4003F01D0D7
:100B48004CEA0405484C6560246822404D6815F459
:100B5800803F01D04CEA0402434C226001330F2B42
:100B68007DD801229A400C6804EA020C32EA040497
:100B7800F4D14C6804F00304013C012C8BD94A6879
:100B880002F00302032A09D0C4685D000322AA40C8
:100B980024EA02048A68AA402243C2604A6802F032
:100BA8000302022A8ED004684FEA430E032202FA97
:100BB8000EF224EA02044A6802F0030202FA0EF274
:100BC800224302604A6812F4403FC7D000220192D3
:100BD800264A546C44F480445464526C02F48042B3
:100BE8000192019A9C08A51C1E4A52F8255003F050
:100BF800030E4FEA8E0E0F2202FA0EF225EA0205C4
:100C08001B4A90423FF474AF02F5806290421AD0BA
:100C180002F58062904218D002F58062904216D0A8
:100C280002F58062904214D002F58062904212D0A0
:100C380002F58062904210D002F5806290423FF443
:100C480055AF082255E7012253E7022251E7032254
:100C58004FE704224DE705224BE7062249E702B099
:100C680070BD704700380140003C01400038024028
:100C7800000002400AB18161704709048161704730
:100C8800436901EA030221EA030141EA0241816161
:100C98007047704708B5054B5B69034200D108BD32
:100CA800024B5861FFF7F5FFF9E700BF003C014030
:100CB800002800F0E08170B582B00446036813F0A4
:100CC800010F3BD09F4B9B6803F00C03042B2CD0E7
:100CD8009C4B9B6803F00C03082B21D06368B3F589
:100CE800803F4FD0B3F5A02F52D0964B1A6822F40C
:100CF80080321A601A6822F480221A606368002B16
:100D080050D0FFF7CDFD05468E4B1B6813F4003F0E
:100D180014D1FFF7C5FD401B6428F5D90320B1E1C4
:100D2800884B5B6813F4800FD8D0864B1B6813F48C
:100D3800003F03D06368002B00F09F81236813F005
:100D4800020F54D07F4B9B6813F00C0F3ED07D4BA5
:100D58009B6803F00C03082B33D0E368002B68D0A2
:100D6800794B01221A60FFF79BFD0546754B1B68FE
:100D780013F0020F54D1FFF793FD401B0228F5D959
:100D880003207FE16F4A136843F480331360B5E7AB
:100D98006C4B1A6842F480221A601A6842F4803256
:100DA8001A60ABE7FFF77CFD0546664B1B6813F43A
:100DB800003FC3D0FFF774FD401B6428F5D903201A
:100DC80060E1604B5B6813F4800FC6D15D4B1B6814
:100DD80013F0020F03D0E368012B40F05081594A09
:100DE800136823F0F803216943EAC10313602368F9
:100DF80013F0080F42D063696BB3534B0122C3F859
:100E0800802EFFF74DFD05464E4B5B6F13F0020F2A
:100E180034D1FFF745FD401B0228F5D9032031E105
:100E2800484A136823F0F803216943EAC1031360B1
:100E3800DDE7454B00221A60FFF732FD0546414BBE
:100E48001B6813F0020FD2D0FFF72AFD401B0228BF
:100E5800F5D9032016E13C4B0022C3F8802EFFF79A
:100E68001FFD0546374B5B6F13F0020F06D0FFF7E7
:100E780017FD401B0228F5D9032003E1236813F06E
:100E8800040F77D02F4B1B6C13F0805F33D10023F6
:100E980001932C4B1A6C42F080521A641B6C03F0BD
:100EA80080530193019B0125284B1B6813F4807F15
:100EB80023D0A368012B34D0052B38D0214B1A6FCF
:100EC80022F001021A671A6F22F004021A67A36857
:100ED800002B3DD0FFF7E4FC06461A4B1B6F13F0BE
:100EE800020F46D1FFF7DCFC801B41F288339842A1
:100EF800F3D90320C6E00025D6E7144A136843F463
:100F080080731360FFF7CCFC0646104B1B6813F484
:100F1800807FCED1FFF7C4FC801B0228F5D90320BF
:100F2800B0E0084A136F43F001031367CFE7054B9E
:100F38001A6F42F004021A671A6F42F001021A6728
:100F4800C5E700BF0038024000004742007000407B
:100F5800FFF7A6FC0646524B1B6F13F0020F08D092
:100F6800FFF79EFC801B41F288339842F3D9032097
:100F780088E0EDB9A369002B00F08380484A9268A5
:100F880002F00C02082A51D0022B17D0454B002240
:100F98001A66FFF785FC0446414B1B6813F0007F77
:100FA80042D0FFF77DFC001B0228F5D9032069E039
:100FB8003B4A136C23F080531364DBE7394B002260
:100FC8001A66FFF76DFC0546354B1B6813F0007F6A
:100FD80006D0FFF765FC401B0228F5D9032051E035
:100FE800E369226A1343626A43EA8213A26A5208D7
:100FF800013A43EA0243E26A43EA0263284A536039
:10100800284B01221A66FFF74BFC0446244B1B6849
:1010180013F0007F06D1FFF743FC001B0228F5D927
:1010280003202FE000202DE000202BE0012B2BD007
:101038001B4B5B6803F48001E269914226D103F0FF
:101048003F02216A8A4223D1616A47F6C0721A4078
:10105800B2EB811F1ED103F44031A26A5208013A53
:10106800B1EB024F18D103F07063E26AB3EB026F81
:1010780014D1002006E001207047012002E0012081
:1010880000E0002002B070BD0120FBE70120F9E775
:101098000120F7E70120F5E70120F3E70120F1E758
:1010A800003802400000474208B5264B9B6803F011
:1010B8000C03042B41D0082B41D1224B5A6802F073
:1010C8003F025B6813F4800F12D01E4B5968C1F3BE
:1010D80088111D480023A1FB0001FFF751F8194BA7
:1010E8005B68C3F3014301335B00B0FBF3F008BD59
:1010F800144B5868C0F388104FEA401CBCEB000C36
:101108006EEB0E0E4FEA8E1343EA9C634FEA8C1186
:10111800B1EB0C0163EB0E03DB0043EA5173C9002A
:1011280011EB000C43F10003990200234FEA8C20D5
:1011380041EA9C51FFF724F8D1E70348D7E7034871
:10114800D5E700BF00380240001BB7000024F400B8
:10115800002800F09B8070B50D4604464F4B1B6875
:1011680003F007038B4208D2CBB24C4A13701368C2
:1011780003F007038B4240F08B80236813F0020FC3
:1011880017D013F0040F04D0454A936843F4E05392
:101198009360236813F0080F04D0414A936843F41E
:1011A800604393603E4A936823F0F003A1680B43C1
:1011B8009360236813F0010F32D06368012B21D0AC
:1011C8009A1E012A25D9364A126812F0020F61D0F8
:1011D80033498A6822F0030213438B60FFF760FBF0
:1011E80006462F4B9B6803F00C036268B3EB820F33
:1011F80016D0FFF755FB801B41F288339842F0D98F
:10120800032042E0264A126812F4003FE0D1012090
:101218003BE0234A126812F0007FD9D1012034E064
:101228001E4B1B6803F00703AB4207D9EAB21B4BFE
:101238001A701B6803F00703AB422DD1236813F023
:10124800040F06D0164A936823F4E053E1680B4371
:101258009360236813F0080F07D0114A936823F4AA
:101268006043216943EAC1039360FFF71DFF0C4BFC
:101278009B68C3F303130B4AD35CD8400A4B18602E
:101288000A4B1868FFF7C0FA002070BD01207047AC
:101298000120FAE70120F8E70120F6E7003C0240C8
:1012A80000380240602500080000002008000020E7
:1012B800014B1868704700BF0000002008B5FFF711
:1012C800F7FF044B9B68C3F38223034AD35CD840DF
:1012D80008BD00BF003802405825000808B5FFF7D0
:1012E800E7FF044B9B68C3F34233034AD35CD840FF
:1012F80008BD00BF003802405825000830B4036A12
:10130800026A22F0010202624268846924F0730CC6
:101318000C6844EA0C0423F0020C8B6843EA0C03C3
:10132800114DA84203D005F58065A84205D123F0E8
:101338000803CD682B4323F004030B4DA84203D0C8
:1013480005F58065A84207D122F440724D6945EA47
:10135800020C8A6942EA0C02426084614A6842636C
:10136800036230BC704700BF0000014030B4036A1C
:10137800026A22F4807202624268C46924F0730C23
:101388000C6844EA0C0523F400738C6843EA0423D0
:10139800114CA04203D004F58064A04206D123F486
:1013A8000063CC6843EA042323F480630A4CA04218
:1013B80003D004F58064A04207D122F440524C695E
:1013C80042EA04128C6942EA04124260C5614A6822
:1013D800C263036230BC70470000014030B4036A46
:1013E800026A22F4805202624468C26922F4E64228
:1013F8000D6842EA052223F400538D6843EA053359
:10140800094DA84203D005F58065A84204D124F40B
:1014180080444D6944EA85144460C2614A680264A4
:10142800036230BC704700BF0000014010B4036A7B
:10143800046A24F001040462846924F0F00C4CEA84
:10144800021223F00A030B43826103625DF8044B26
:10145800704710B4036A046A24F0100404628469B3
:1014680024F4704C4CEA023223F0A00343EA01133F
:10147800826103625DF8044B7047836823F0700350
:101488000B4343F007038360704770470368324A91
:10149800904212D0B0F1804F0FD0A2F57C4290421A
:1014A8000BD002F58062904207D002F5806290422C
:1014B80003D002F57842904203D123F070034A68C2
:1014C8001343254A90422AD0B0F1804F27D0A2F585
:1014D8007C42904223D002F5806290421FD002F5F0
:1014E800806290421BD002F57842904217D002F5F4
:1014F8007052904213D002F5806290420FD002F5EC
:10150800806290420BD0A2F59832904207D002F543
:101518008062904203D002F58062904203D123F4A6
:101528004073CA68134323F080034A6913438A68E7
:10153800C2620A688262084A904203D002F5806259
:10154800904201D10A690263026842F00402026013
:1015580001224261036070470000014040B310B5AA
:10156800044690F83D30F3B1022384F83D3021461B
:1015780051F8040BFFF78AFF012384F8463084F8FA
:101588003E3084F83F3084F8403084F8413084F8A5
:10159800423084F8433084F8443084F8453084F885
:1015A8003D30002010BD80F83C30FFF75BF8DBE7EA
:1015B8000120704740B310B5044690F83D30F3B1B0
:1015C800022384F83D30214651F8040BFFF75EFFF3
:1015D800012384F8463084F83E3084F83F3084F89C
:1015E800403084F8413084F8423084F8433084F83D
:1015F800443084F8453084F83D30002010BD80F830
:101608003C30FFF742FFDBE70120704730B4036A44
:10161800026A22F0100202624468826922F4E642F9
:101628000D6842EA052223F020038D6843EA05137A
:10163800114DA84203D005F58065A84206D123F0D4
:101648008003CD6843EA051323F040030A4DA842FE
:1016580003D005F58065A84207D124F440644D699C
:1016680044EA85048D6944EA8504446082614A68D5
:101678008263036230BC70470000014038B590F8BF
:101688003C30012B66D004460D46012380F83C30DF
:101698000C2A5AD8DFE802F0075959591B595959E9
:1016A8003059595944000068FFF728FE22689369A9
:1016B80043F0080393612268936923F0040393615C
:1016C8002268936929690B43936100203EE0006812
:1016D800FFF79CFF2268936943F4006393612268D3
:1016E800936923F48063936122689369296943EAC3
:1016F80001239361002029E00068FFF737FE226884
:10170800D36943F00803D3612268D36923F0040343
:10171800D3612268D36929690B43D361002015E09E
:101728000068FFF75BFE2268D36943F40063D36166
:101738002268D36923F48063D3612268D369296955
:1017480043EA0123D361002000E00120002384F84C
:101758003C3038BD0220FCE710B4846824F47F4C88
:1017680042EA03220A4342EA0C0282605DF8044B13
:10177800704790F83C30012B78D010B5044601230F
:1017880080F83C30022380F83D300268936823F4E7
:101798007F4323F0770393600B68602B4CD023D8EA
:1017A800402B54D011D8202B03D00AD80BB1102BC2
:1017B80005D119462068FFF760FE002028E00120C7
:1017C80026E0302BF5D0012022E0502B0AD1CA6840
:1017D80049680068FFF72AFE50212068FFF74DFE90
:1017E800002015E0012013E0B3F5805F3AD0B3F58F
:1017F800005F14D0702B37D1CB684A6889680068BD
:10180800FFF7AAFF2268936843F0770393600020EC
:10181800012384F83D30002384F83C3010BDCB68A8
:101828004A6889680068FFF797FF2268936843F45D
:10183800804393600020EBE7CA6849680068FFF7B7
:1018480008FE60212068FFF718FE0020E0E7CA685C
:1018580049680068FFF7EAFD40212068FFF70DFEA0
:101868000020D5E70020D3E70120D1E70220704708
:1018780001F01F014FF0010C0CFA01FC036A23EA86
:101888000C030362036A8A40134303627047000033
:1018980010B504460846002942D194F83E30DBB220
:1018A800013B18BF0123002B6ED1002851D1022320
:1018B80084F83E30012201462068FFF7D9FF2368EB
:1018C800334A934203D002F58062934203D15A6CA3
:1018D80042F400425A6423682D4A934249D0B3F136
:1018E800804F46D0A2F57C42934242D002F58062F6
:1018F80093423ED002F5806293423AD002F5784294
:10190800934236D002F57052934232D0A2F5943207
:1019180093422ED01A6842F001021A60002032E089
:10192800042908D008290DD094F84130DBB2013BD6
:1019380018BF0123B7E794F83F30DBB2013B18BF6B
:101948000123B0E794F84030DBB2013B18BF012314
:10195800A9E7042805D0082807D0022384F84130D5
:10196800A8E7022384F83F30A4E7022384F8403034
:10197800A0E79A6802F00702062A07D01A6842F020
:1019880001021A60002010BD0120FCE70020FAE7E0
:101998000000014090F83C20012A3DD010B40346D5
:1019A800012280F83C20022280F83D20026850681D
:1019B800946820F0700C086840EA0C0050601A68BF
:1019C800164882421AD0B2F1804F17D0A0F57C4059
:1019D800824213D000F5806082420FD000F580600B
:1019E80082420BD000F57840824207D000F5705053
:1019F800824203D0A0F59430824204D124F08004BE
:101A0800496821439160012283F83D20002083F832
:101A18003C005DF8044B704702207047000001400D
:101A2800026802F10C0353E8003F23F490730C3270
:101A380042E800310029F3D1026802F1140353E8A7
:101A4800003F23F00103143242E800310029F3D1AA
:101A5800036B012B05D0202380F842300023036359
:101A68007047026802F10C0353E8003F23F01003AB
:101A78000C3242E800310029F3D1ECE790F841300C
:101A8800DBB2212B01D0022070478368B3F5805F59
:101A980017D0036A5A1C02621A7803685A60C38C0A
:101AA8009BB2013B9BB2C3844BB90268D36823F055
:101AB8008003D3600268D36843F04003D3600020FA
:101AC80070470369002BE4D1036A1B880268C3F3DB
:101AD80008035360036A02330362E0E710B5044663
:101AE8000268136923F44053C1680B431361836888
:101AF80002691A4343691A43C3691A430168CB68E8
:101B080023F4164323F00C031343CB600268536994
:101B180023F4407381690B4353610368314A93424C
:101B280006D002F58062934202D0FFF7C7FB01E0BE
:101B3800FFF7D4FBE369B3F5004F29D00021031860
:101B480049411B1841F10001C90041EA5371DB000A
:101B5800181863684FEA83024FEA937341F1000152
:101B6800FEF70EFB204AA2FB00314909642303FB60
:101B780011031B013233A2FB03235B0903F0F002BC
:101B880002EB011203F00F03216813448B6010BDB0
:101B98000023021843EB0301121841F10001C900A8
:101BA80041EA5271D200101841F10001626892189E
:101BB8005B41FEF7E5FA0C4AA2FB003149096423B0
:101BC80003FB1103DB003233A2FB03235B095A003A
:101BD80002F4F87202EB011203F0070321681344C0
:101BE8008B60D4E7001001401F85EB512DE9F043CD
:101BF80083B005460E4617469946DDF828802B68BF
:101C08001C6836EA04040CBF01240024BC4228D115
:101C1800B8F1FF3FF3D0FEF743FEA0EB09004045C3
:101C280023D8B8F1000F22D02B68DA6812F0040F1D
:101C3800E5D0802EE3D0402EE1D01A6812F0080FCC
:101C4800DDD0002401941A6801925B680193019B1E
:101C58002846FFF7E5FE08236B6485F8404001201D
:101C680000E0002003B0BDE8F0830320FAE703207A
:101C7800F8E760B310B5044690F8413013B3242355
:101C880084F841302268D36823F40053D360204697
:101C9800FFF724FF2268136923F490431361226835
:101CA800536923F02A0353612268D36843F400532D
:101CB800D36000206064202384F8413084F84230E7
:101CC800606310BD80F84030FEF710FDD7E70120B3
:101CD80070472DE9F04182B01E4690F84130DBB2E2
:101CE800202B56D104460D469046002955D00AB9F6
:101CF80001204FE000234364212380F84130FEF7A0
:101D0800CFFD0746A4F82480A4F82680A368B3F57D
:101D1800805F02D04FF0000814E023692BB34FF026
:101D280000080FE0202384F84130032032E038F81F
:101D3800023B2268C3F308035360E28C92B2013A73
:101D480092B2E284E38C9BB293B100963B460022A8
:101D580080212046FFF74AFF0028E3D1002DE6D076
:101D680015F8012B23685A60E7E7A8460025E9E73C
:101D780000963B46002240212046FFF737FF18B95E
:101D8800202384F8413005E0202384F841300320E3
:101D980000E0022002B0BDE8F0810120FAE77047B8
:101DA80008B50168CA6822F04002CA60202280F89B
:101DB8004120FFF7F4FF002008BD704708B5806B8D
:101DC8000023C385FFF7F9FF08BD704790F842303C
:101DD800DBB2222B69D18368B3F5805F4FD0826A6A
:101DE800B3F5805F04D0002B56D10369002B53D183
:101DF80003685B681370836A01338362C38D9BB287
:101E0800013B9BB2C385002B51D100B583B002685A
:101E1800D36823F02003D3600268D36823F4807367
:101E2800D3600268536923F001035361202380F8CB
:101E3800423000234363036B012B33D10023036338
:101E4800026802F10C0353E8003F23F010030C3240
:101E580042E800310029F3D103681A6812F0100F24
:101E680006D0002201921A6801925B680193019BD7
:101E7800818DFFF7AAFF002003B05DF804FB02691B
:101E8800002AACD1826A03685B68C3F30803138035
:101E9800836A02338362B1E703685B6803F07F03F8
:101EA8001370A8E7FEF72AFAE5E70220704700203A
:101EB8007047000010B582B0044602681368D06805
:101EC800516913F00F0F09D113F0200F0CD010F047
:101ED800200F09D02046FFF779FF16E011F0010125
:101EE80015D110F4907F12D1216B012979D013F00C
:101EF800800F03D010F0800F40F0218113F0400FC5
:101F080003D010F0400F40F01E8102B010BD13F056
:101F1800010F06D010F4807F03D0626C42F00102FA
:101F2800626413F0040F04D019B1626C42F002022B
:101F3800626413F0020F04D019B1626C42F004021B
:101F4800626413F0080F07D010F0200F00D119B108
:101F5800626C42F008026264626C002AD5D013F009
:101F6800200F02D010F0200F29D123685B6903F0FD
:101F78004003626C12F0080F00D163B32046FFF7EC
:101F88004FFD23685B6913F0400F20D0226802F1EF
:101F9800140353E8003F23F04003143242E80031B1
:101FA8000029F3D1E36B73B1694A1A65E06BFEF758
:101FB80057FD0028A9D0E06B036D9847A5E7204698
:101FC800FFF704FFD1E72046FFF7F7FE9DE720461D
:101FD800FFF7F3FE99E72046FFF7EFFE002363645F
:101FE80093E713F0100F82D010F0100F3FF47FAF7B
:101FF800002301931368019353680193019B53696C
:1020080013F0400F5FD0E26B13685B689BB2002B44
:102018004AD0A18D994247D9E385D369B3F5807F2A
:1020280037D0226802F10C0353E8003F23F4807391
:102038000C3242E800310029F3D1226802F114037E
:1020480053E8003F23F00103143242E8003100292D
:10205800F3D1226802F1140353E8003F23F0400350
:10206800143242E800310029F3D1202384F84230A9
:1020780000232363226802F10C0353E8003F23F096
:1020880010030C3242E800310029F3D1E06BFEF76F
:102098009DFC02236363A18DE38D9BB2C91A89B2AB
:1020A8002046FFF792FE30E7A18D99427FF42DAFCD
:1020B800D369B3F5807F7FF428AF0223636320469A
:1020C800FFF783FE21E7A18DE38D9BB2C91A89B280
:1020D800E38D9BB2002B3FF418AF00293FF415AFF6
:1020E800226802F10C0353E8003F23F490730C328A
:1020F80042E800300028F3D1226802F1140353E8C3
:10210800003F23F00103143242E800300028F3D1E5
:10211800202384F8423000232363226802F10C0351
:1021280053E8003F23F010030C3242E80030002847
:10213800F3D1022363632046FFF747FEE5E6204616
:10214800FFF79CFCE1E62046FFF72AFEDDE600BF2C
:10215800C51D000881628285C2850023436422234D
:1021680080F84230036923B10268D36843F480736E
:10217800D3600268536943F0010353610268D3686E
:1021880043F02003D3600020704708B590F8423030
:10219800DBB2202B08D149B10AB9012008BD0023C0
:1021A8000363FFF7D7FFF9E70220F7E70120F5E718
:1021B800DFF834D0FEF71EFB0C480D490D4A00230A
:1021C80002E0D458C4500433C4188C42F9D30A4AE4
:1021D8000A4C002301E013600432A242FBD300F052
:1021E80077F9FEF797F970470000022000000020F9
:1021F8000C000020802500080C000020D8000020DA
:10220800FEE700002DE9F047089D0E4604460F46FC
:10221800002B4AD194468C45B2FA82F260D942B179
:10222800C2F12003974020FA03F30CFA02FC1F4383
:1022380094404FEA1C4E1FFA8CF6B7FBFEF1230CB4
:102248000EFB117743EA074301FB06F098420AD9CF
:102258001CEB030301F1FF3780F01581984240F22F
:102268001281023963441B1AA4B2B3FBFEF00EFBC1
:10227800103344EA034400FB06F6A6420AD91CEBD5
:10228800040400F1FF3380F00081A64240F2FD8093
:102298006444023840EA0140A41B00211DB1D44027
:1022A8000023C5E90043BDE8F0878B4205D90DB18D
:1022B800C5E9000100210846F5E7B3FA83F10029D2
:1022C80046D1B34202D3824200F2F580841A66EB0B
:1022D800030201201746002DE5D0C5E90047E2E7D3
:1022E800002A40F09380A1EB0C034FEA1C471FFA29
:1022F8008CFE0121B3FBF7F607FB1630230C43EAEB
:1023080000430EFB06F0984208D91CEB030306F1C4
:10231800FF3802D2984200F2D08046461B1AA4B277
:10232800B3FBF7F007FB103344EA03440EFB00FE4F
:10233800A64508D91CEB040400F1FF3302D2A645D8
:1023480000F2B6801846A4EB0E0440EA0640A5E762
:10235800C1F120078B4022FA07FC4CEA030C06FA6D
:1023680001FE20FA07F426FA07F344EA0E0400FAFD
:1023780001F84FEA1C404FEA1449B3FBF0FE1FFA7C
:102388008CF600FB1E3349EA03430EFB06F9994518
:1023980002FA01F20BD91CEB03030EF1FF3A80F0AD
:1023A8008580994540F28280AEF1020E6344A3EB2A
:1023B8000909A4B2B9FBF0F300FB139944EA0944F4
:1023C80003FB06F6A64208D91CEB040403F1FF3010
:1023D80068D2A64266D9023B644443EA0E40A41B75
:1023E800A0FB02E6B4427346B14652D34FD05DB16A
:1023F800B8EB030264EB090404FA07F722FA01F3C5
:102408001F43CC40C5E9007400214CE7C2F120010C
:1024180020FA01F30CFA02FC26FA01F19640334344
:102428004FEA1C471FFA8CFEB1FBF7F007FB1016AA
:10243800190C41EA064100FB0EF68E4204FA02F43A
:1024480008D91CEB010100F1FF382DD28E422BD99F
:1024580002386144891B9BB2B1FBF7F607FB1611E2
:1024680043EA014306FB0EF1994208D91CEB03032A
:1024780006F1FF3814D2994212D9023E63445B1A1E
:1024880046EA004136E73946EDE6184602E7F045E8
:10249800ADD2BEEB020366EB0C060138B146A6E7E7
:1024A8004646ECE7034698E74046D3E7D6467EE73C
:1024B8006444023847E708460DE7023E63442DE7C7
:1024C80002440346934200D1704703F8011BF9E721
:1024D80070B50D4D0D4C641BA4100026A64209D101
:1024E8000B4D0C4C00F018F8641BA4100026A642F3
:1024F80005D170BD55F8043B98470136EEE755F80D
:10250800043B98470136F2E778250008782500084B
:10251800782500087C250008F8B500BFF8BC08BC81
:102528009E467047F8B500BFF8BC08BC9E46704789
:102538006368616E676500007374617274000000FF
:1025480049276D20616C72656164790D0A0000008D
:102558000000000001020304000000000000000069
:08256800010203040607080943
:082570004CDCFF7F01000000BC
:04257800390200081C
:04257C001102000840
:0C2580000024F400010000001000000026
:04000005080021B915
:00000001FF
